:0100000000FF
:0100010000FE
:0100020001FC
:0100030001FB
:0100040000FB
:0100050001F9
:0100060001F8
:0100070000F8
:0100080001F6
:0100090001F5
:01000A0000F5
:01000B0001F3
:01000C0001F2
:01000D0000F2
:01000E0001F0
:01000F0001EF
:0100100000EF
:0100110001ED
:0100120002EB
:0100130001EB
:0100140003E8
:0100150000EA
:0100160003E6
:0100170003E5
:0100180000E7
:0100190003E3
:01001A0003E2
:01001B0000E4
:01001C0003E0
:01001D0003DF
:01001E0000E1
:01001F0003DD
:0100200003DC
:0100210000DE
:0100220003DA
:0100230002DA
:0100240001DA
:0100250003D7
:0100260000D9
:0100270003D5
:0100280003D4
:0100290000D6
:01002A0003D2
:01002B0003D1
:01002C0000D3
:01002D0003CF
:01002E0003CE
:01002F0000D0
:0100300003CC
:0100310003CB
:0100320000CD
:0100330003C9
:0100340002C9
:0100350001C9
:0100360003C6
:0100370000C8
:0100380003C4
:0100390003C3
:01003A0000C5
:01003B0003C1
:01003C0003C0
:01003D0000C2
:01003E0003BE
:01003F0003BD
:0100400000BF
:0100410003BB
:0100420002BB
:0100430001BB
:0100440003B8
:0100450000BA
:0100460003B6
:0100470002B6
:0100480001B6
:0100490003B3
:01004A0000B5
:01004B0003B1
:01004C0002B1
:01004D0001B1
:01004E0002AF
:01004F0001AF
:0100500002AD
:0100510001AD
:0100520002AB
:0100530001AB
:0100540002A9
:0100550001A9
:0100560002A7
:0100570001A7
:0100580002A5
:0100590001A5
:01005A0002A3
:01005B0001A3
:01005C0002A1
:01005D0000A2
:01005E00039E
:01005F0000A0
:01006000019E
:01006100029C
:01006200019C
:01006300029A
:01006400009B
:010065000397
:010066000099
:010067000197
:010068000295
:010069000096
:01006A000392
:01006B000094
:01006C000093
:01006D00038F
:01006E000091
:01006F00018F
:01007000028D
:01007100008E
:01007200038A
:01007300008C
:01007400008B
:010075000387
:010076000089
:010077000088
:010078000384
:010079000086
:01007A000085
:01007B000381
:01007C000083
:01007D000082
:01007E00037E
:01007F000080
:01008000007F
:01008100037B
:01008200007D
:01008300007C
:010084000378
:01008500007A
:010086000079
:010087000375
:010088000077
:010089000076
:01008A00066F
:01008B000173
:01008C000073
:01008D00046E
:01008E00036E
:01008F000070
:01009000006F
:010091000668
:01009200016C
:01009300006C
:010094000467
:010095000367
:010096000069
:010097000068
:010098000661
:010099000165
:01009A000065
:01009B000460
:01009C000261
:01009D000161
:01009E000061
:01009F00045C
:0100A000025D
:0100A100015D
:0100A200005D
:0100A3000458
:0100A4000259
:0100A5000159
:0100A6000059
:0100A7000454
:0100A8000255
:0100A9000155
:0100AA000055
:0100AB000450
:0100AC000251
:0100AD000151
:0100AE000051
:0100AF00044C
:0100B000024D
:0100B100004E
:0100B200014C
:0100B3000448
:0100B400004B
:0100B5000248
:0100B6000148
:0100B7000048
:0100B8000443
:0100B9000244
:0100BA000045
:0100BB000143
:0100BC00043F
:0100BD000042
:0100BE00023F
:0100BF00013F
:0100C000003F
:0100C100043A
:0100C200023B
:0100C300003C
:0100C400013A
:0100C5000436
:0100C6000039
:0100C7000236
:0100C800082F
:0100C9000135
:0100CA000431
:0100CB000034
:0100CC000231
:0100CD00082A
:0100CE000130
:0100CF00042C
:0100D000002F
:0100D100022C
:0100D2000825
:0100D300012B
:0100D4000427
:0100D500002A
:0100D6000227
:0100D7000820
:0100D8000027
:0100D9000521
:0100DA000025
:0100DB000024
:0100DC000A19
:0100DD000022
:0100DE000120
:0100DF00041C
:0100E000001F
:0100E100021C
:0100E2000815
:0100E300001C
:0100E4000516
:0100E500001A
:0100E6000019
:0100E7000A0E
:0100E8000017
:0100E9000115
:0100EA000411
:0100EB000014
:0100EC000211
:0100ED00080A
:0100EE000011
:0100EF00050B
:0100F000000F
:0100F100000E
:0100F2000A03
:0100F300000C
:0100F400000B
:0100F5000505
:0100F6000009
:0100F7000008
:0100F8000AFD
:0100F9000006
:0100FA000005
:0100FB000400
:0100FC000003
:0100FD000002
:0100FE0008F9
:0100FF000000
:00000001FF
